:100000000C9434000C943E000C943E000C943E0082
:100010000C943E000C943E000C943E000C943E0068
:100020000C943E000C943E000C943E000C943E0058
:100030000C943E000C943E000C943E000C943E0048
:100040000C943E000C943E000C943E000C943E0038
:100050000C943E000C943E000C943E000C943E0028
:100060000C943E000C943E0011241FBECFEFD8E04C
:10007000DEBFCDBF0E946C000C9494000C94000075
:10008000209A5098589A5198599A089580E48093EC
:100090007C0087E880937A00089590917C00987F97
:1000A00090937C0090917C008770892B80937C00DA
:1000B00080917A00806480937A0080917A0084FF36
:1000C000FCCF80917A00806180937A002091780043
:1000D00030917900C9010895CF93DF930E944000C9
:1000E0000E944600C0E9D1E0489915C0499913C063
:1000F00088EC90E0FE013197F1F70197D9F7289A43
:1001000080E00E944D0080ED97E0FE013197F1F70D
:100110000197D9F7E9CF88EC90E0FE013197F1F72C
:0C0120000197D9F72898E0CFF894FFCFA2
:00000001FF
